{
  "contractName": "Land",
  "abi": [
    {
      "inputs": [
        {
          "internalType": "string",
          "name": "_name",
          "type": "string"
        },
        {
          "internalType": "string",
          "name": "_symbol",
          "type": "string"
        },
        {
          "internalType": "uint256",
          "name": "_cost",
          "type": "uint256"
        }
      ],
      "stateMutability": "nonpayable",
      "type": "constructor"
    },
    {
      "anonymous": false,
      "inputs": [
        {
          "indexed": true,
          "internalType": "address",
          "name": "owner",
          "type": "address"
        },
        {
          "indexed": true,
          "internalType": "address",
          "name": "approved",
          "type": "address"
        },
        {
          "indexed": true,
          "internalType": "uint256",
          "name": "tokenId",
          "type": "uint256"
        }
      ],
      "name": "Approval",
      "type": "event"
    },
    {
      "anonymous": false,
      "inputs": [
        {
          "indexed": true,
          "internalType": "address",
          "name": "owner",
          "type": "address"
        },
        {
          "indexed": true,
          "internalType": "address",
          "name": "operator",
          "type": "address"
        },
        {
          "indexed": false,
          "internalType": "bool",
          "name": "approved",
          "type": "bool"
        }
      ],
      "name": "ApprovalForAll",
      "type": "event"
    },
    {
      "anonymous": false,
      "inputs": [
        {
          "indexed": true,
          "internalType": "address",
          "name": "from",
          "type": "address"
        },
        {
          "indexed": true,
          "internalType": "address",
          "name": "to",
          "type": "address"
        },
        {
          "indexed": true,
          "internalType": "uint256",
          "name": "tokenId",
          "type": "uint256"
        }
      ],
      "name": "Transfer",
      "type": "event"
    },
    {
      "inputs": [
        {
          "internalType": "address",
          "name": "to",
          "type": "address"
        },
        {
          "internalType": "uint256",
          "name": "tokenId",
          "type": "uint256"
        }
      ],
      "name": "approve",
      "outputs": [],
      "stateMutability": "nonpayable",
      "type": "function"
    },
    {
      "inputs": [
        {
          "internalType": "address",
          "name": "owner",
          "type": "address"
        }
      ],
      "name": "balanceOf",
      "outputs": [
        {
          "internalType": "uint256",
          "name": "",
          "type": "uint256"
        }
      ],
      "stateMutability": "view",
      "type": "function",
      "constant": true
    },
    {
      "inputs": [
        {
          "internalType": "uint256",
          "name": "",
          "type": "uint256"
        }
      ],
      "name": "buildings",
      "outputs": [
        {
          "internalType": "string",
          "name": "name",
          "type": "string"
        },
        {
          "internalType": "address",
          "name": "owner",
          "type": "address"
        }
      ],
      "stateMutability": "view",
      "type": "function",
      "constant": true
    },
    {
      "inputs": [],
      "name": "cost",
      "outputs": [
        {
          "internalType": "uint256",
          "name": "",
          "type": "uint256"
        }
      ],
      "stateMutability": "view",
      "type": "function",
      "constant": true
    },
    {
      "inputs": [
        {
          "internalType": "uint256",
          "name": "tokenId",
          "type": "uint256"
        }
      ],
      "name": "getApproved",
      "outputs": [
        {
          "internalType": "address",
          "name": "",
          "type": "address"
        }
      ],
      "stateMutability": "view",
      "type": "function",
      "constant": true
    },
    {
      "inputs": [
        {
          "internalType": "address",
          "name": "owner",
          "type": "address"
        },
        {
          "internalType": "address",
          "name": "operator",
          "type": "address"
        }
      ],
      "name": "isApprovedForAll",
      "outputs": [
        {
          "internalType": "bool",
          "name": "",
          "type": "bool"
        }
      ],
      "stateMutability": "view",
      "type": "function",
      "constant": true
    },
    {
      "inputs": [],
      "name": "maxSupply",
      "outputs": [
        {
          "internalType": "uint256",
          "name": "",
          "type": "uint256"
        }
      ],
      "stateMutability": "view",
      "type": "function",
      "constant": true
    },
    {
      "inputs": [],
      "name": "name",
      "outputs": [
        {
          "internalType": "string",
          "name": "",
          "type": "string"
        }
      ],
      "stateMutability": "view",
      "type": "function",
      "constant": true
    },
    {
      "inputs": [
        {
          "internalType": "uint256",
          "name": "tokenId",
          "type": "uint256"
        }
      ],
      "name": "ownerOf",
      "outputs": [
        {
          "internalType": "address",
          "name": "",
          "type": "address"
        }
      ],
      "stateMutability": "view",
      "type": "function",
      "constant": true
    },
    {
      "inputs": [
        {
          "internalType": "address",
          "name": "operator",
          "type": "address"
        },
        {
          "internalType": "bool",
          "name": "approved",
          "type": "bool"
        }
      ],
      "name": "setApprovalForAll",
      "outputs": [],
      "stateMutability": "nonpayable",
      "type": "function"
    },
    {
      "inputs": [
        {
          "internalType": "bytes4",
          "name": "interfaceId",
          "type": "bytes4"
        }
      ],
      "name": "supportsInterface",
      "outputs": [
        {
          "internalType": "bool",
          "name": "",
          "type": "bool"
        }
      ],
      "stateMutability": "view",
      "type": "function",
      "constant": true
    },
    {
      "inputs": [],
      "name": "symbol",
      "outputs": [
        {
          "internalType": "string",
          "name": "",
          "type": "string"
        }
      ],
      "stateMutability": "view",
      "type": "function",
      "constant": true
    },
    {
      "inputs": [
        {
          "internalType": "uint256",
          "name": "tokenId",
          "type": "uint256"
        }
      ],
      "name": "tokenURI",
      "outputs": [
        {
          "internalType": "string",
          "name": "",
          "type": "string"
        }
      ],
      "stateMutability": "view",
      "type": "function",
      "constant": true
    },
    {
      "inputs": [],
      "name": "totalSupply",
      "outputs": [
        {
          "internalType": "uint256",
          "name": "",
          "type": "uint256"
        }
      ],
      "stateMutability": "view",
      "type": "function",
      "constant": true
    },
    {
      "inputs": [
        {
          "internalType": "uint256",
          "name": "_id",
          "type": "uint256"
        }
      ],
      "name": "mint",
      "outputs": [],
      "stateMutability": "payable",
      "type": "function",
      "payable": true
    },
    {
      "inputs": [
        {
          "internalType": "address",
          "name": "from",
          "type": "address"
        },
        {
          "internalType": "address",
          "name": "to",
          "type": "address"
        },
        {
          "internalType": "uint256",
          "name": "tokenId",
          "type": "uint256"
        }
      ],
      "name": "transferFrom",
      "outputs": [],
      "stateMutability": "nonpayable",
      "type": "function"
    },
    {
      "inputs": [
        {
          "internalType": "address",
          "name": "from",
          "type": "address"
        },
        {
          "internalType": "address",
          "name": "to",
          "type": "address"
        },
        {
          "internalType": "uint256",
          "name": "tokenId",
          "type": "uint256"
        }
      ],
      "name": "safeTransferFrom",
      "outputs": [],
      "stateMutability": "nonpayable",
      "type": "function"
    },
    {
      "inputs": [
        {
          "internalType": "address",
          "name": "from",
          "type": "address"
        },
        {
          "internalType": "address",
          "name": "to",
          "type": "address"
        },
        {
          "internalType": "uint256",
          "name": "tokenId",
          "type": "uint256"
        },
        {
          "internalType": "bytes",
          "name": "_data",
          "type": "bytes"
        }
      ],
      "name": "safeTransferFrom",
      "outputs": [],
      "stateMutability": "nonpayable",
      "type": "function"
    },
    {
      "inputs": [
        {
          "internalType": "uint256",
          "name": "_id",
          "type": "uint256"
        }
      ],
      "name": "getBuildings",
      "outputs": [
        {
          "components": [
            {
              "internalType": "string",
              "name": "name",
              "type": "string"
            },
            {
              "internalType": "address",
              "name": "owner",
              "type": "address"
            }
          ],
          "internalType": "struct Land.Building",
          "name": "",
          "type": "tuple"
        }
      ],
      "stateMutability": "view",
      "type": "function",
      "constant": true
    },
    {
      "inputs": [],
      "name": "getBuildings",
      "outputs": [
        {
          "components": [
            {
              "internalType": "string",
              "name": "name",
              "type": "string"
            },
            {
              "internalType": "address",
              "name": "owner",
              "type": "address"
            }
          ],
          "internalType": "struct Land.Building[]",
          "name": "",
          "type": "tuple[]"
        }
      ],
      "stateMutability": "view",
      "type": "function",
      "constant": true
    }
  ],
  "bytecode": "0x6080604052670de0b6b3a7640000600655600660075560006008553480156200002757600080fd5b506040516200390a3803806200390a83398181016040528101906200004d919062000784565b82828160009080519060200190620000679291906200064b565b508060019080519060200190620000809291906200064b565b50505080600681905550600960405180604001604052806040518060400160405280600f81526020017f416476656e7475726520686f75736500000000000000000000000000000000008152508152602001600073ffffffffffffffffffffffffffffffffffffffff1681525090806001815401808255809150506001900390600052602060002090600202016000909190919091506000820151816000019080519060200190620001349291906200064b565b5060208201518160010160006101000a81548173ffffffffffffffffffffffffffffffffffffffff021916908373ffffffffffffffffffffffffffffffffffffffff1602179055505050600960405180604001604052806040518060400160405280600b81526020017f53746f6e6520486f7573650000000000000000000000000000000000000000008152508152602001600073ffffffffffffffffffffffffffffffffffffffff1681525090806001815401808255809150506001900390600052602060002090600202016000909190919091506000820151816000019080519060200190620002289291906200064b565b5060208201518160010160006101000a81548173ffffffffffffffffffffffffffffffffffffffff021916908373ffffffffffffffffffffffffffffffffffffffff1602179055505050600960405180604001604052806040518060400160405280600981526020017f41706172746d656e7400000000000000000000000000000000000000000000008152508152602001600073ffffffffffffffffffffffffffffffffffffffff16815250908060018154018082558091505060019003906000526020600020906002020160009091909190915060008201518160000190805190602001906200031c9291906200064b565b5060208201518160010160006101000a81548173ffffffffffffffffffffffffffffffffffffffff021916908373ffffffffffffffffffffffffffffffffffffffff1602179055505050600960405180604001604052806040518060400160405280600981526020017f4d63446f6e616c647300000000000000000000000000000000000000000000008152508152602001600073ffffffffffffffffffffffffffffffffffffffff1681525090806001815401808255809150506001900390600052602060002090600202016000909190919091506000820151816000019080519060200190620004109291906200064b565b5060208201518160010160006101000a81548173ffffffffffffffffffffffffffffffffffffffff021916908373ffffffffffffffffffffffffffffffffffffffff1602179055505050600960405180604001604052806040518060400160405280600c81526020017f4d6f6465726e20486f75736500000000000000000000000000000000000000008152508152602001600073ffffffffffffffffffffffffffffffffffffffff1681525090806001815401808255809150506001900390600052602060002090600202016000909190919091506000820151816000019080519060200190620005049291906200064b565b5060208201518160010160006101000a81548173ffffffffffffffffffffffffffffffffffffffff021916908373ffffffffffffffffffffffffffffffffffffffff1602179055505050600960405180604001604052806040518060400160405280600a81526020017f456d707479206c616e64000000000000000000000000000000000000000000008152508152602001600073ffffffffffffffffffffffffffffffffffffffff1681525090806001815401808255809150506001900390600052602060002090600202016000909190919091506000820151816000019080519060200190620005f89291906200064b565b5060208201518160010160006101000a81548173ffffffffffffffffffffffffffffffffffffffff021916908373ffffffffffffffffffffffffffffffffffffffff1602179055505050505050620009a0565b8280546200065990620008ab565b90600052602060002090601f0160209004810192826200067d5760008555620006c9565b82601f106200069857805160ff1916838001178555620006c9565b82800160010185558215620006c9579182015b82811115620006c8578251825591602001919060010190620006ab565b5b509050620006d89190620006dc565b5090565b5b80821115620006f7576000816000905550600101620006dd565b5090565b6000620007126200070c8462000835565b6200080c565b9050828152602081018484840111156200072b57600080fd5b6200073884828562000875565b509392505050565b600082601f8301126200075257600080fd5b815162000764848260208601620006fb565b91505092915050565b6000815190506200077e8162000986565b92915050565b6000806000606084860312156200079a57600080fd5b600084015167ffffffffffffffff811115620007b557600080fd5b620007c38682870162000740565b935050602084015167ffffffffffffffff811115620007e157600080fd5b620007ef8682870162000740565b925050604062000802868287016200076d565b9150509250925092565b6000620008186200082b565b9050620008268282620008e1565b919050565b6000604051905090565b600067ffffffffffffffff82111562000853576200085262000946565b5b6200085e8262000975565b9050602081019050919050565b6000819050919050565b60005b838110156200089557808201518184015260208101905062000878565b83811115620008a5576000848401525b50505050565b60006002820490506001821680620008c457607f821691505b60208210811415620008db57620008da62000917565b5b50919050565b620008ec8262000975565b810181811067ffffffffffffffff821117156200090e576200090d62000946565b5b80604052505050565b7f4e487b7100000000000000000000000000000000000000000000000000000000600052602260045260246000fd5b7f4e487b7100000000000000000000000000000000000000000000000000000000600052604160045260246000fd5b6000601f19601f8301169050919050565b62000991816200086b565b81146200099d57600080fd5b50565b612f5a80620009b06000396000f3fe60806040526004361061011f5760003560e01c806370a08231116100a0578063c87b56dd11610064578063c87b56dd146103eb578063ca8c346214610428578063d5abeb0114610465578063d9cf6a2614610490578063e985e9c5146104bb5761011f565b806370a082311461031557806395d89b4114610352578063a0712d681461037d578063a22cb46514610399578063b88d4fde146103c25761011f565b806318160ddd116100e757806318160ddd1461021d57806323b872dd1461024857806342842e0e146102715780634c96a0621461029a5780636352211e146102d85761011f565b806301ffc9a71461012457806306fdde0314610161578063081812fc1461018c578063095ea7b3146101c957806313faede6146101f2575b600080fd5b34801561013057600080fd5b5061014b6004803603810190610146919061212f565b6104f8565b60405161015891906125f3565b60405180910390f35b34801561016d57600080fd5b506101766105da565b604051610183919061260e565b60405180910390f35b34801561019857600080fd5b506101b360048036038101906101ae9190612181565b61066c565b6040516101c0919061256a565b60405180910390f35b3480156101d557600080fd5b506101f060048036038101906101eb91906120f3565b6106b2565b005b3480156101fe57600080fd5b506102076107ca565b60405161021491906127e2565b60405180910390f35b34801561022957600080fd5b506102326107d0565b60405161023f91906127e2565b60405180910390f35b34801561025457600080fd5b5061026f600480360381019061026a9190611fed565b6107d6565b005b34801561027d57600080fd5b5061029860048036038101906102939190611fed565b6108cc565b005b3480156102a657600080fd5b506102c160048036038101906102bc9190612181565b6108ec565b6040516102cf929190612630565b60405180910390f35b3480156102e457600080fd5b506102ff60048036038101906102fa9190612181565b6109c8565b60405161030c919061256a565b60405180910390f35b34801561032157600080fd5b5061033c60048036038101906103379190611f88565b610a7a565b60405161034991906127e2565b60405180910390f35b34801561035e57600080fd5b50610367610b32565b604051610374919061260e565b60405180910390f35b61039760048036038101906103929190612181565b610bc4565b005b3480156103a557600080fd5b506103c060048036038101906103bb91906120b7565b610d58565b005b3480156103ce57600080fd5b506103e960048036038101906103e4919061203c565b610d6e565b005b3480156103f757600080fd5b50610412600480360381019061040d9190612181565b610e66565b60405161041f919061260e565b60405180910390f35b34801561043457600080fd5b5061044f600480360381019061044a9190612181565b610ece565b60405161045c91906127c0565b60405180910390f35b34801561047157600080fd5b5061047a611024565b60405161048791906127e2565b60405180910390f35b34801561049c57600080fd5b506104a561102a565b6040516104b291906125d1565b60405180910390f35b3480156104c757600080fd5b506104e260048036038101906104dd9190611fb1565b611171565b6040516104ef91906125f3565b60405180910390f35b60007f80ac58cd000000000000000000000000000000000000000000000000000000007bffffffffffffffffffffffffffffffffffffffffffffffffffffffff1916827bffffffffffffffffffffffffffffffffffffffffffffffffffffffff191614806105c357507f5b5e139f000000000000000000000000000000000000000000000000000000007bffffffffffffffffffffffffffffffffffffffffffffffffffffffff1916827bffffffffffffffffffffffffffffffffffffffffffffffffffffffff1916145b806105d357506105d282611205565b5b9050919050565b6060600080546105e990612a51565b80601f016020809104026020016040519081016040528092919081815260200182805461061590612a51565b80156106625780601f1061063757610100808354040283529160200191610662565b820191906000526020600020905b81548152906001019060200180831161064557829003601f168201915b5050505050905090565b60006106778261126f565b6004600083815260200190815260200160002060009054906101000a900473ffffffffffffffffffffffffffffffffffffffff169050919050565b60006106bd826109c8565b90508073ffffffffffffffffffffffffffffffffffffffff168373ffffffffffffffffffffffffffffffffffffffff16141561072e576040517f08c379a000000000000000000000000000000000000000000000000000000000815260040161072590612780565b60405180910390fd5b8073ffffffffffffffffffffffffffffffffffffffff1661074d6112ba565b73ffffffffffffffffffffffffffffffffffffffff16148061077c575061077b816107766112ba565b611171565b5b6107bb576040517f08c379a00000000000000000000000000000000000000000000000000000000081526004016107b290612720565b60405180910390fd5b6107c583836112c2565b505050565b60065481565b60085481565b6107e76107e16112ba565b8261137b565b610826576040517f08c379a000000000000000000000000000000000000000000000000000000000815260040161081d906127a0565b60405180910390fd5b8160096001836108369190612967565b8154811061086d577f4e487b7100000000000000000000000000000000000000000000000000000000600052603260045260246000fd5b906000526020600020906002020160010160006101000a81548173ffffffffffffffffffffffffffffffffffffffff021916908373ffffffffffffffffffffffffffffffffffffffff1602179055506108c7838383611410565b505050565b6108e783838360405180602001604052806000815250610d6e565b505050565b600981815481106108fc57600080fd5b906000526020600020906002020160009150905080600001805461091f90612a51565b80601f016020809104026020016040519081016040528092919081815260200182805461094b90612a51565b80156109985780601f1061096d57610100808354040283529160200191610998565b820191906000526020600020905b81548152906001019060200180831161097b57829003601f168201915b5050505050908060010160009054906101000a900473ffffffffffffffffffffffffffffffffffffffff16905082565b6000806002600084815260200190815260200160002060009054906101000a900473ffffffffffffffffffffffffffffffffffffffff169050600073ffffffffffffffffffffffffffffffffffffffff168173ffffffffffffffffffffffffffffffffffffffff161415610a71576040517f08c379a0000000000000000000000000000000000000000000000000000000008152600401610a6890612760565b60405180910390fd5b80915050919050565b60008073ffffffffffffffffffffffffffffffffffffffff168273ffffffffffffffffffffffffffffffffffffffff161415610aeb576040517f08c379a0000000000000000000000000000000000000000000000000000000008152600401610ae290612700565b60405180910390fd5b600360008373ffffffffffffffffffffffffffffffffffffffff1673ffffffffffffffffffffffffffffffffffffffff168152602001908152602001600020549050919050565b606060018054610b4190612a51565b80601f0160208091040260200160405190810160405280929190818152602001828054610b6d90612a51565b8015610bba5780601f10610b8f57610100808354040283529160200191610bba565b820191906000526020600020905b815481529060010190602001808311610b9d57829003601f168201915b5050505050905090565b60006008549050600754811115610bda57600080fd5b600073ffffffffffffffffffffffffffffffffffffffff166009600184610c019190612967565b81548110610c38577f4e487b7100000000000000000000000000000000000000000000000000000000600052603260045260246000fd5b906000526020600020906002020160010160009054906101000a900473ffffffffffffffffffffffffffffffffffffffff1673ffffffffffffffffffffffffffffffffffffffff1614610c8a57600080fd5b670de0b6b3a7640000341015610c9f57600080fd5b336009600184610caf9190612967565b81548110610ce6577f4e487b7100000000000000000000000000000000000000000000000000000000600052603260045260246000fd5b906000526020600020906002020160010160006101000a81548173ffffffffffffffffffffffffffffffffffffffff021916908373ffffffffffffffffffffffffffffffffffffffff1602179055506001600854610d4491906128e0565b600881905550610d543383611677565b5050565b610d6a610d636112ba565b8383611695565b5050565b610d7f610d796112ba565b8361137b565b610dbe576040517f08c379a0000000000000000000000000000000000000000000000000000000008152600401610db5906127a0565b60405180910390fd5b826009600184610dce9190612967565b81548110610e05577f4e487b7100000000000000000000000000000000000000000000000000000000600052603260045260246000fd5b906000526020600020906002020160010160006101000a81548173ffffffffffffffffffffffffffffffffffffffff021916908373ffffffffffffffffffffffffffffffffffffffff160217905550610e6084848484611802565b50505050565b6060610e718261126f565b6000610e7b61185e565b90506000815111610e9b5760405180602001604052806000815250610ec6565b80610ea584611875565b604051602001610eb6929190612546565b6040516020818303038152906040525b915050919050565b610ed6611e87565b6009600183610ee59190612967565b81548110610f1c577f4e487b7100000000000000000000000000000000000000000000000000000000600052603260045260246000fd5b9060005260206000209060020201604051806040016040529081600082018054610f4590612a51565b80601f0160208091040260200160405190810160405280929190818152602001828054610f7190612a51565b8015610fbe5780601f10610f9357610100808354040283529160200191610fbe565b820191906000526020600020905b815481529060010190602001808311610fa157829003601f168201915b505050505081526020016001820160009054906101000a900473ffffffffffffffffffffffffffffffffffffffff1673ffffffffffffffffffffffffffffffffffffffff1673ffffffffffffffffffffffffffffffffffffffff16815250509050919050565b60075481565b60606009805480602002602001604051908101604052809291908181526020016000905b82821015611168578382906000526020600020906002020160405180604001604052908160008201805461108190612a51565b80601f01602080910402602001604051908101604052809291908181526020018280546110ad90612a51565b80156110fa5780601f106110cf576101008083540402835291602001916110fa565b820191906000526020600020905b8154815290600101906020018083116110dd57829003601f168201915b505050505081526020016001820160009054906101000a900473ffffffffffffffffffffffffffffffffffffffff1673ffffffffffffffffffffffffffffffffffffffff1673ffffffffffffffffffffffffffffffffffffffff16815250508152602001906001019061104e565b50505050905090565b6000600560008473ffffffffffffffffffffffffffffffffffffffff1673ffffffffffffffffffffffffffffffffffffffff16815260200190815260200160002060008373ffffffffffffffffffffffffffffffffffffffff1673ffffffffffffffffffffffffffffffffffffffff16815260200190815260200160002060009054906101000a900460ff16905092915050565b60007f01ffc9a7000000000000000000000000000000000000000000000000000000007bffffffffffffffffffffffffffffffffffffffffffffffffffffffff1916827bffffffffffffffffffffffffffffffffffffffffffffffffffffffff1916149050919050565b61127881611a22565b6112b7576040517f08c379a00000000000000000000000000000000000000000000000000000000081526004016112ae90612760565b60405180910390fd5b50565b600033905090565b816004600083815260200190815260200160002060006101000a81548173ffffffffffffffffffffffffffffffffffffffff021916908373ffffffffffffffffffffffffffffffffffffffff160217905550808273ffffffffffffffffffffffffffffffffffffffff16611335836109c8565b73ffffffffffffffffffffffffffffffffffffffff167f8c5be1e5ebec7d5bd14f71427d1e84f3dd0314c0f7b2291e5b200ac8c7c3b92560405160405180910390a45050565b600080611387836109c8565b90508073ffffffffffffffffffffffffffffffffffffffff168473ffffffffffffffffffffffffffffffffffffffff1614806113c957506113c88185611171565b5b8061140757508373ffffffffffffffffffffffffffffffffffffffff166113ef8461066c565b73ffffffffffffffffffffffffffffffffffffffff16145b91505092915050565b8273ffffffffffffffffffffffffffffffffffffffff16611430826109c8565b73ffffffffffffffffffffffffffffffffffffffff1614611486576040517f08c379a000000000000000000000000000000000000000000000000000000000815260040161147d90612680565b60405180910390fd5b600073ffffffffffffffffffffffffffffffffffffffff168273ffffffffffffffffffffffffffffffffffffffff1614156114f6576040517f08c379a00000000000000000000000000000000000000000000000000000000081526004016114ed906126c0565b60405180910390fd5b611501838383611a8e565b61150c6000826112c2565b6001600360008573ffffffffffffffffffffffffffffffffffffffff1673ffffffffffffffffffffffffffffffffffffffff168152602001908152602001600020600082825461155c9190612967565b925050819055506001600360008473ffffffffffffffffffffffffffffffffffffffff1673ffffffffffffffffffffffffffffffffffffffff16815260200190815260200160002060008282546115b391906128e0565b92505081905550816002600083815260200190815260200160002060006101000a81548173ffffffffffffffffffffffffffffffffffffffff021916908373ffffffffffffffffffffffffffffffffffffffff160217905550808273ffffffffffffffffffffffffffffffffffffffff168473ffffffffffffffffffffffffffffffffffffffff167fddf252ad1be2c89b69c2b068fc378daa952ba7f163c4a11628f55a4df523b3ef60405160405180910390a4611672838383611a93565b505050565b611691828260405180602001604052806000815250611a98565b5050565b8173ffffffffffffffffffffffffffffffffffffffff168373ffffffffffffffffffffffffffffffffffffffff161415611704576040517f08c379a00000000000000000000000000000000000000000000000000000000081526004016116fb906126e0565b60405180910390fd5b80600560008573ffffffffffffffffffffffffffffffffffffffff1673ffffffffffffffffffffffffffffffffffffffff16815260200190815260200160002060008473ffffffffffffffffffffffffffffffffffffffff1673ffffffffffffffffffffffffffffffffffffffff16815260200190815260200160002060006101000a81548160ff0219169083151502179055508173ffffffffffffffffffffffffffffffffffffffff168373ffffffffffffffffffffffffffffffffffffffff167f17307eab39ab6107e8899845ad3d59bd9653f200f220920489ca2b5937696c31836040516117f591906125f3565b60405180910390a3505050565b61180d848484611410565b61181984848484611af3565b611858576040517f08c379a000000000000000000000000000000000000000000000000000000000815260040161184f90612660565b60405180910390fd5b50505050565b606060405180602001604052806000815250905090565b606060008214156118bd576040518060400160405280600181526020017f30000000000000000000000000000000000000000000000000000000000000008152509050611a1d565b600082905060005b600082146118ef5780806118d890612ab4565b915050600a826118e89190612936565b91506118c5565b60008167ffffffffffffffff811115611931577f4e487b7100000000000000000000000000000000000000000000000000000000600052604160045260246000fd5b6040519080825280601f01601f1916602001820160405280156119635781602001600182028036833780820191505090505b5090505b60008514611a165760018261197c9190612967565b9150600a8561198b9190612afd565b603061199791906128e0565b60f81b8183815181106119d3577f4e487b7100000000000000000000000000000000000000000000000000000000600052603260045260246000fd5b60200101907effffffffffffffffffffffffffffffffffffffffffffffffffffffffffffff1916908160001a905350600a85611a0f9190612936565b9450611967565b8093505050505b919050565b60008073ffffffffffffffffffffffffffffffffffffffff166002600084815260200190815260200160002060009054906101000a900473ffffffffffffffffffffffffffffffffffffffff1673ffffffffffffffffffffffffffffffffffffffff1614159050919050565b505050565b505050565b611aa28383611c8a565b611aaf6000848484611af3565b611aee576040517f08c379a0000000000000000000000000000000000000000000000000000000008152600401611ae590612660565b60405180910390fd5b505050565b6000611b148473ffffffffffffffffffffffffffffffffffffffff16611e64565b15611c7d578373ffffffffffffffffffffffffffffffffffffffff1663150b7a02611b3d6112ba565b8786866040518563ffffffff1660e01b8152600401611b5f9493929190612585565b602060405180830381600087803b158015611b7957600080fd5b505af1925050508015611baa57506040513d601f19601f82011682018060405250810190611ba79190612158565b60015b611c2d573d8060008114611bda576040519150601f19603f3d011682016040523d82523d6000602084013e611bdf565b606091505b50600081511415611c25576040517f08c379a0000000000000000000000000000000000000000000000000000000008152600401611c1c90612660565b60405180910390fd5b805181602001fd5b63150b7a0260e01b7bffffffffffffffffffffffffffffffffffffffffffffffffffffffff1916817bffffffffffffffffffffffffffffffffffffffffffffffffffffffff191614915050611c82565b600190505b949350505050565b600073ffffffffffffffffffffffffffffffffffffffff168273ffffffffffffffffffffffffffffffffffffffff161415611cfa576040517f08c379a0000000000000000000000000000000000000000000000000000000008152600401611cf190612740565b60405180910390fd5b611d0381611a22565b15611d43576040517f08c379a0000000000000000000000000000000000000000000000000000000008152600401611d3a906126a0565b60405180910390fd5b611d4f60008383611a8e565b6001600360008473ffffffffffffffffffffffffffffffffffffffff1673ffffffffffffffffffffffffffffffffffffffff1681526020019081526020016000206000828254611d9f91906128e0565b92505081905550816002600083815260200190815260200160002060006101000a81548173ffffffffffffffffffffffffffffffffffffffff021916908373ffffffffffffffffffffffffffffffffffffffff160217905550808273ffffffffffffffffffffffffffffffffffffffff16600073ffffffffffffffffffffffffffffffffffffffff167fddf252ad1be2c89b69c2b068fc378daa952ba7f163c4a11628f55a4df523b3ef60405160405180910390a4611e6060008383611a93565b5050565b6000808273ffffffffffffffffffffffffffffffffffffffff163b119050919050565b604051806040016040528060608152602001600073ffffffffffffffffffffffffffffffffffffffff1681525090565b6000611eca611ec584612822565b6127fd565b905082815260208101848484011115611ee257600080fd5b611eed848285612a0f565b509392505050565b600081359050611f0481612ec8565b92915050565b600081359050611f1981612edf565b92915050565b600081359050611f2e81612ef6565b92915050565b600081519050611f4381612ef6565b92915050565b600082601f830112611f5a57600080fd5b8135611f6a848260208601611eb7565b91505092915050565b600081359050611f8281612f0d565b92915050565b600060208284031215611f9a57600080fd5b6000611fa884828501611ef5565b91505092915050565b60008060408385031215611fc457600080fd5b6000611fd285828601611ef5565b9250506020611fe385828601611ef5565b9150509250929050565b60008060006060848603121561200257600080fd5b600061201086828701611ef5565b935050602061202186828701611ef5565b925050604061203286828701611f73565b9150509250925092565b6000806000806080858703121561205257600080fd5b600061206087828801611ef5565b945050602061207187828801611ef5565b935050604061208287828801611f73565b925050606085013567ffffffffffffffff81111561209f57600080fd5b6120ab87828801611f49565b91505092959194509250565b600080604083850312156120ca57600080fd5b60006120d885828601611ef5565b92505060206120e985828601611f0a565b9150509250929050565b6000806040838503121561210657600080fd5b600061211485828601611ef5565b925050602061212585828601611f73565b9150509250929050565b60006020828403121561214157600080fd5b600061214f84828501611f1f565b91505092915050565b60006020828403121561216a57600080fd5b600061217884828501611f34565b91505092915050565b60006020828403121561219357600080fd5b60006121a184828501611f73565b91505092915050565b60006121b683836124bd565b905092915050565b6121c78161299b565b82525050565b6121d68161299b565b82525050565b60006121e782612863565b6121f18185612891565b93508360208202850161220385612853565b8060005b8581101561223f578484038952815161222085826121aa565b945061222b83612884565b925060208a01995050600181019050612207565b50829750879550505050505092915050565b61225a816129ad565b82525050565b600061226b8261286e565b61227581856128a2565b9350612285818560208601612a1e565b61228e81612bea565b840191505092915050565b60006122a482612879565b6122ae81856128b3565b93506122be818560208601612a1e565b6122c781612bea565b840191505092915050565b60006122dd82612879565b6122e781856128c4565b93506122f7818560208601612a1e565b61230081612bea565b840191505092915050565b600061231682612879565b61232081856128d5565b9350612330818560208601612a1e565b80840191505092915050565b60006123496032836128c4565b915061235482612bfb565b604082019050919050565b600061236c6025836128c4565b915061237782612c4a565b604082019050919050565b600061238f601c836128c4565b915061239a82612c99565b602082019050919050565b60006123b26024836128c4565b91506123bd82612cc2565b604082019050919050565b60006123d56019836128c4565b91506123e082612d11565b602082019050919050565b60006123f86029836128c4565b915061240382612d3a565b604082019050919050565b600061241b603e836128c4565b915061242682612d89565b604082019050919050565b600061243e6020836128c4565b915061244982612dd8565b602082019050919050565b60006124616018836128c4565b915061246c82612e01565b602082019050919050565b60006124846021836128c4565b915061248f82612e2a565b604082019050919050565b60006124a76031836128c4565b91506124b282612e79565b604082019050919050565b600060408301600083015184820360008601526124da8282612299565b91505060208301516124ef60208601826121be565b508091505092915050565b600060408301600083015184820360008601526125178282612299565b915050602083015161252c60208601826121be565b508091505092915050565b61254081612a05565b82525050565b6000612552828561230b565b915061255e828461230b565b91508190509392505050565b600060208201905061257f60008301846121cd565b92915050565b600060808201905061259a60008301876121cd565b6125a760208301866121cd565b6125b46040830185612537565b81810360608301526125c68184612260565b905095945050505050565b600060208201905081810360008301526125eb81846121dc565b905092915050565b60006020820190506126086000830184612251565b92915050565b6000602082019050818103600083015261262881846122d2565b905092915050565b6000604082019050818103600083015261264a81856122d2565b905061265960208301846121cd565b9392505050565b600060208201905081810360008301526126798161233c565b9050919050565b600060208201905081810360008301526126998161235f565b9050919050565b600060208201905081810360008301526126b981612382565b9050919050565b600060208201905081810360008301526126d9816123a5565b9050919050565b600060208201905081810360008301526126f9816123c8565b9050919050565b60006020820190508181036000830152612719816123eb565b9050919050565b600060208201905081810360008301526127398161240e565b9050919050565b6000602082019050818103600083015261275981612431565b9050919050565b6000602082019050818103600083015261277981612454565b9050919050565b6000602082019050818103600083015261279981612477565b9050919050565b600060208201905081810360008301526127b98161249a565b9050919050565b600060208201905081810360008301526127da81846124fa565b905092915050565b60006020820190506127f76000830184612537565b92915050565b6000612807612818565b90506128138282612a83565b919050565b6000604051905090565b600067ffffffffffffffff82111561283d5761283c612bbb565b5b61284682612bea565b9050602081019050919050565b6000819050602082019050919050565b600081519050919050565b600081519050919050565b600081519050919050565b6000602082019050919050565b600082825260208201905092915050565b600082825260208201905092915050565b600082825260208201905092915050565b600082825260208201905092915050565b600081905092915050565b60006128eb82612a05565b91506128f683612a05565b9250827fffffffffffffffffffffffffffffffffffffffffffffffffffffffffffffffff0382111561292b5761292a612b2e565b5b828201905092915050565b600061294182612a05565b915061294c83612a05565b92508261295c5761295b612b5d565b5b828204905092915050565b600061297282612a05565b915061297d83612a05565b9250828210156129905761298f612b2e565b5b828203905092915050565b60006129a6826129e5565b9050919050565b60008115159050919050565b60007fffffffff0000000000000000000000000000000000000000000000000000000082169050919050565b600073ffffffffffffffffffffffffffffffffffffffff82169050919050565b6000819050919050565b82818337600083830152505050565b60005b83811015612a3c578082015181840152602081019050612a21565b83811115612a4b576000848401525b50505050565b60006002820490506001821680612a6957607f821691505b60208210811415612a7d57612a7c612b8c565b5b50919050565b612a8c82612bea565b810181811067ffffffffffffffff82111715612aab57612aaa612bbb565b5b80604052505050565b6000612abf82612a05565b91507fffffffffffffffffffffffffffffffffffffffffffffffffffffffffffffffff821415612af257612af1612b2e565b5b600182019050919050565b6000612b0882612a05565b9150612b1383612a05565b925082612b2357612b22612b5d565b5b828206905092915050565b7f4e487b7100000000000000000000000000000000000000000000000000000000600052601160045260246000fd5b7f4e487b7100000000000000000000000000000000000000000000000000000000600052601260045260246000fd5b7f4e487b7100000000000000000000000000000000000000000000000000000000600052602260045260246000fd5b7f4e487b7100000000000000000000000000000000000000000000000000000000600052604160045260246000fd5b6000601f19601f8301169050919050565b7f4552433732313a207472616e7366657220746f206e6f6e20455243373231526560008201527f63656976657220696d706c656d656e7465720000000000000000000000000000602082015250565b7f4552433732313a207472616e736665722066726f6d20696e636f72726563742060008201527f6f776e6572000000000000000000000000000000000000000000000000000000602082015250565b7f4552433732313a20746f6b656e20616c7265616479206d696e74656400000000600082015250565b7f4552433732313a207472616e7366657220746f20746865207a65726f2061646460008201527f7265737300000000000000000000000000000000000000000000000000000000602082015250565b7f4552433732313a20617070726f766520746f2063616c6c657200000000000000600082015250565b7f4552433732313a2061646472657373207a65726f206973206e6f74206120766160008201527f6c6964206f776e65720000000000000000000000000000000000000000000000602082015250565b7f4552433732313a20617070726f76652063616c6c6572206973206e6f7420746f60008201527f6b656e206f776e6572206e6f7220617070726f76656420666f7220616c6c0000602082015250565b7f4552433732313a206d696e7420746f20746865207a65726f2061646472657373600082015250565b7f4552433732313a20696e76616c696420746f6b656e2049440000000000000000600082015250565b7f4552433732313a20617070726f76616c20746f2063757272656e74206f776e6560008201527f7200000000000000000000000000000000000000000000000000000000000000602082015250565b7f4552433732313a207472616e736665722063616c6c6572206973206e6f74206f60008201527f776e6572206e6f7220617070726f766564000000000000000000000000000000602082015250565b612ed18161299b565b8114612edc57600080fd5b50565b612ee8816129ad565b8114612ef357600080fd5b50565b612eff816129b9565b8114612f0a57600080fd5b50565b612f1681612a05565b8114612f2157600080fd5b5056fea26469706673582212208e269f27d4ab80f45da2e9023536a028d7f5b07a055ca6cf38d99df47b6808a464736f6c63430008020033",
  "immutableReferences": {},
  "source": "// SPDX-Licence-Identifier: MIT\r\npragma solidity ^0.8.0;\r\n\r\nimport \"@openzeppelin/contracts/token/ERC721/ERC721.sol\";\r\n\r\ncontract Land is ERC721{\r\n\r\nuint256 public cost = 1 ether;\r\nuint256 public maxSupply = 6;\r\nuint256 public totalSupply = 0;\r\n\r\nstruct Building {\r\n    string name;\r\n    address owner;\r\n}\r\n\r\nBuilding[] public buildings;\r\n\r\nconstructor(\r\n        string memory _name,\r\n        string memory _symbol,\r\n        uint256 _cost\r\n    ) ERC721(_name, _symbol) {\r\n        cost = _cost;\r\n\r\n         buildings.push(\r\n            Building(\"Adventure house\", address(0x0))\r\n        );\r\n        buildings.push(Building(\"Stone House\", address(0x0)));\r\n        buildings.push(\r\n            Building(\"Apartment\", address(0x0))\r\n        );\r\n        buildings.push(\r\n            Building(\"McDonalds\", address(0x0))\r\n        );\r\n        buildings.push(\r\n            Building(\"Modern House\", address(0x0))\r\n        );\r\n        buildings.push(\r\n            Building(\"Empty land\", address(0x0))\r\n        );\r\n    }\r\n\r\nfunction mint(uint256 _id) public payable {\r\n    uint256 supply = totalSupply;\r\n    require(supply<=maxSupply);\r\n    require(buildings[_id - 1].owner == address(0x0));\r\n    require(msg.value >= 1 ether);\r\n\r\n    buildings[_id - 1].owner = msg.sender;\r\n    totalSupply = totalSupply + 1;\r\n    _safeMint(msg.sender, _id);\r\n}\r\n\r\nfunction transferFrom(\r\n    address from,\r\n    address to,\r\n    uint256 tokenId\r\n) public override {\r\n    require(\r\n        _isApprovedOrOwner(_msgSender(), tokenId),\r\n        \"ERC721: transfer caller is not owner nor approved\"\r\n    );\r\n\r\n    buildings[tokenId - 1].owner = to;\r\n    _transfer(from,to, tokenId);\r\n}\r\n\r\nfunction safeTransferFrom(\r\n    address from,\r\n    address to,\r\n    uint256 tokenId,\r\n    bytes memory _data\r\n) public override {\r\n    require(\r\n        _isApprovedOrOwner(_msgSender(), tokenId),\r\n        \"ERC721: transfer caller is not owner nor approved\"\r\n    );\r\n\r\n    buildings[tokenId - 1].owner = to;\r\n    _safeTransfer(from,to, tokenId, _data);\r\n}\r\n\r\nfunction getBuildings() public  view returns(Building[] memory){\r\n    return buildings;\r\n}\r\n\r\nfunction getBuildings(uint256 _id) public  view returns(Building memory){\r\n    return buildings[_id - 1];\r\n}\r\n\r\n}",
  "sourcePath": "C:\\Users\\P1\\Database\\samsara\\src\\contracts\\Land.sol",
  "compiler": {
    "name": "solc",
    "version": "0.8.2+commit.661d1103.Emscripten.clang"
  },
  "schemaVersion": "3.4.7",
  "updatedAt": "2022-07-24T20:49:56.710Z",
  "networkType": "ethereum",
  "devdoc": {
    "kind": "dev",
    "methods": {
      "approve(address,uint256)": {
        "details": "See {IERC721-approve}."
      },
      "balanceOf(address)": {
        "details": "See {IERC721-balanceOf}."
      },
      "getApproved(uint256)": {
        "details": "See {IERC721-getApproved}."
      },
      "isApprovedForAll(address,address)": {
        "details": "See {IERC721-isApprovedForAll}."
      },
      "name()": {
        "details": "See {IERC721Metadata-name}."
      },
      "ownerOf(uint256)": {
        "details": "See {IERC721-ownerOf}."
      },
      "safeTransferFrom(address,address,uint256)": {
        "details": "See {IERC721-safeTransferFrom}."
      },
      "setApprovalForAll(address,bool)": {
        "details": "See {IERC721-setApprovalForAll}."
      },
      "supportsInterface(bytes4)": {
        "details": "See {IERC165-supportsInterface}."
      },
      "symbol()": {
        "details": "See {IERC721Metadata-symbol}."
      },
      "tokenURI(uint256)": {
        "details": "See {IERC721Metadata-tokenURI}."
      },
      "transferFrom(address,address,uint256)": {
        "details": "See {IERC721-transferFrom}."
      }
    },
    "version": 1
  },
  "userdoc": {
    "kind": "user",
    "methods": {},
    "version": 1
  }
}